:100000000C9472000C9493000C9493000C94930045
:100010000C9493000C9493000C9493000C94930014
:100020000C9493000C9493000C9493000C94930004
:100030000C9493000C9493000C9493000C949300F4
:100040000C9493000C9493000C9493000C949300E4
:100050000C9493000C9493000C9493000C94A700C0
:100060000C9493000C9493000C9493000C949300C4
:100070000C9493000C9493000C9493000C949300B4
:100080000C9493000C9493000C9493000C949300A4
:100090000C9493000C9493000C9493000C94930094
:1000A0000C9493000C9493000C9493000C94930084
:1000B0000C9493000C9493000C9493000C94930074
:1000C0000C9493000C9493000C9493000C94930064
:1000D0000C9493000C9493000C9493000C94930054
:1000E0000C94930011241FBECFEFD1E2DEBFCDBF31
:1000F00000E00CBF12E0A0E0B2E0EAE9F1E000E0CD
:100100000BBF02C007900D92A030B107D9F712E0E3
:10011000A0E0B2E001C01D92A130B107E1F70E945A
:1001200095000C94CB000C9400008FEF8093040199
:100130008093050185B5846085BDEEE6F0E08081A1
:100140008160808316BC109200027894FFCF1F92CA
:100150000F920FB60F920BB60F9211248F93EF935D
:10016000FF93809100028F5F8093000280910002D4
:100170008D3239F4E5E0F1E0808180958083109242
:100180000002FF91EF918F910F900BBE0F900FBE69
:0A0190000F901F901895F894FFCF10
:00000001FF
